S3151000000000080030410400108D050010110C01107D
S31510000010150C0110190C0110210C01101D0C0110EA
S315100000200000000000000000000000009D110110FB
S315100000308F050010000000006111011091050010DD
S315100000409305001093050010A1040010A9040010D8
S31510000050B1040010B9040010C1040010C904001046
S31510000060D1040010D9040010E1040010E9040010B6
S31510000070F1040010F9040010010500100905001024
S3151000008011050010190500109305001093050010B6
S3151000009093050010930500109305001093050010AA
S315100000A0930500109305001021050010930500100C
S315100000B0930500109305001093050010930500108A
S315100000C0930500109305001093050010930500107A
S315100000D093050010930500109305001029050010D4
S315100000E031050010390500104105001049050010B2
S315100000F05105001059050010610500106905001022
S315100001009305001093050010930500109305001039
S315100001109305001093050010930500109305001029
S315100001209305001093050010930500109305001019
S315100001309305001093050010930500109305001009
S315100004007FE97FE913F082BD7FE97FE913F0A0BD94
S315100004107FE97FE913F08CBD7FE97FE913F05ABDC0
S315100004207FE97FE913F064BD0000000000000000C2
S3151000043000000000000000000000000000000000A6
S3151000044072B60E480E4931F08051884212D30B48CD
S315100004500C4900220023002400253CC08842FCD30E
S3151000046009480A493CC08842FCD3094809493CC09E
S315100004708842FCD30848804708480047000000041B
S315100004804F0400100040000400000020000001206E
S3151000049000A0012000C00120E13C001071050010F1
S315100004A000480047930500100048004793050010C8
S315100004B000480047930500100048004793050010B8
S315100004C000480047930500100048004793050010A8
S315100004D00048004793050010004800479305001098
S315100004E00048004793050010004800479305001088
S315100004F00048004793050010004800479305001078
S315100005000048004793050010004800479305001067
S315100005100048004793050010004800479305001057
S315100005200048004793050010004800479305001047
S315100005300048004793050010004800479305001037
S315100005400048004793050010004800479305001027
S31510000550004800475B090110004800476509011073
S315100005600048004793050010004800479305001007
S315100005700548014603B4684680F30988AFF3008046
S3151000058013F098FB13F074FCA5EDF5FEFEE7FEE7FD
S31510000590FEE7FFF7FEBF00000000000000000000AD
S315100005A00000000000000000201C000000000000F9
S315100005B04038000000000000602400000000000029
S315100005C08070000000000000A06C00000000000019
S315100005D0C048000000000000E054000000000000C9
S315100005E000E100000000000020FD000000000000F7
S315100005F040D900000000000060C5000000000000A7
S315100006008091000000000000A08D00000000000096
S31510000610C0A9000000000000E0B5000000000000C6
S3151000062031380010E5380010C33700102538001097
S31510000630093900103D3900104145532D3132382DFE
S31510000640454342004145532D3139322D4543420031
S315100006504145532D3235362D454342004145532DE4
S315100006603132382D47434D004145532D3139322D06
S3151000067047434D004145532D3235362D47434D00E6
S315100006804145532D3132382D43434D004145532DAD
S315100006903139322D43434D004145532D3235362DD8
S315100006A043434D004145532D3132382D43434D2A96
S315100006B02D4E4F2D544147004145532D3139322D82
S315100006C043434D2A2D4E4F2D544147004145532D3E
S315100006D03235362D43434D2A2D4E4F2D544147006A
S315100006E002000000CF400110D7400110D340011086
S315100006F0DB400110F54001100201000080000000EF
S315100007003806001000000000000000001000000075
S31510000710E006001003010000C000000044060010AF
S31510000720000000000000000010000000E0060010AD
S315100007300401000000010000500600100000000037
S315100007400000000010000000E0060010020000008B
S3151000075000000000FF400110FF400110854001100D
S315100007609D4001100E060000800000005C0600107F
S315100007700C00000001000000100000004C070010E3
S315100007800F060000C0000000680600100C000000F4
S3151000079001000000100000004C07001010060000B9
S315100007A000010000740600100C000000010000009B
S315100007B0100000004C0700100200000000000000AE
S315100007C00941011009410110A7400110BD40011057
S315100007D02608000080000000800600100C000000B3
S315100007E00100000010000000B807001027080000E4
S315100007F0C00000008C0600100C0000000100000074
S3151000080010000000B80700102808000000010000C2
S31510000810980600100C0000000100000010000000F7
S31510000820B80700102909000080000000A406001077
S315100008300C0000000100000010000000B8070010B6
S315100008402A090000C0000000B80600100C000000C5
S315100008500100000010000000B80700102B0900006E
S3151000086000010000CC0600100C0000000100000082
S3151000087010000000B807001002000000F806001073
S3151000088003000000140700100400000030070010D9
S315100008900E000000640700100F0000008007001013
S315100008A0100000009C07001026000000D007001062
S315100008B027000000EC0700102800000008080010B0
S315100008C029000000240800102A000000400800102B
S315100008D02B0000005C080010000000000000000063
S315100008E04D020110BD0201109F010110EB01011014
S315100008F0290101100B0201101D0301103D03011007
S3151000090097030110B90301100B4B01104F4B011047
S31510000910EF4801104149011085490110ED490110B8
S31510000920514A0110B34A0110E34D0110434E011014
S31510000930A34B0110ED4B01107D4C0110C34C01105F
S31510000940334D0110934D01103D48011067480110B9
S315100009502D46011077460110A5450110F3450110EB
S315100009600347011083470110ED4701102F41011075
S315100009705B410110EF410110334201108D4301100C
S31510000980D743011005440110B5440110434401102A
S315100009900D4301100D450110AB420110D5FA0010A0
S315100009A0FFFA001029FB001099FB0010FBFB00104A
S315100009B0FDFB0010EDFC001051FD001095FD001020
S315100009C0D3FD00109FFE00104300011051FE0010D1
S315100009D0E9FE0010B9FF00109F000110994E01109A
S315100009E04504011000000000000000000000000097
S315100009F000000000000000000000000000000000E1
S31510000A00000000000000000000000000DD040110DE
S31510000A10E504011003050110210501102F05011031
S31510000A2045050110550501107905011081050110C4
S31510000A308705011091050110950501109705011004
S31510000A4099050110736563703235367231000000F6
S31510000A501D0D0110310D0110F50D01103B0E011089
S31510000A603F0E011054464D5F43525950544F0000EB
S31510000A7054464D5F4154544553544154494F4E5F6B
S31510000A80534552564943450054464D5F494E5445C9
S31510000A90524E414C5F545255535445445F53544F34
S31510000AA0524147455F5345525649434500000000A1
S31510000AB054464D5F53505F504C4154464F524D5F14
S31510000AC053595354454D5F52455345540000000049
S31510000AD054464D5F53505F504C4154464F524D5FF4
S31510000AE0494F43544C00000054464D5F53505F50DD
S31510000AF04C4154464F524D5F4E565F434F554E54E0
S31510000B00455200001B5B313B33346D5B53656320EC
S31510000B105468726561645D205365637572652069FA
S31510000B206D61676520696E697469616C697A696E51
S31510000B3067211B5B306D0D0A000000005468697355
S31510000B4020646576696365207761732070726F76AD
S31510000B506973696F6E656420776974682064756D52
S31510000B606D79206B6579732E200000005B494E4627
S31510000B705D20426567696E6E696E672054462D4D1D
S31510000B802070726F766973696F6E696E670D0A00F1
S31510000B9054464D5F44554D4D595F50524F5649532B
S31510000BA0494F4E494E47206973206E6F74207375F6
S31510000BB0697461626C6520666F722070726F6475FD
S31510000BC06374696F6E212000EDFEDEC00001020322
S31510000BD00405060708090A0B0C0D0E0F0001020387
S31510000BE00405060708090A0B0C0D0E0FEDFEEFBEE5
S31510000BF0A9B454B26D6F90A4EA31193564CBA91F0C
S31510000C00EC6F9A002A7DC0504B92A1937134585FB5
S31510000C1020000000120000006B6964407472757346
S31510000C207465646669726D776172652E6578616D3B
S31510000C30706C650000000000A0A1A2A3A4A5A6A741
S31510000C40A8A9AAABACADAEAFB0B1B2B3B4B5B6B796
S31510000C50B8B9BABBBCBDBEBFAAAAAAAAAAAAAAAA52
S31510000C60BBBBBBBBBBBBBBBBCCCCCCCCCCCCCCCC36
S31510000C70DDDDDDDDDDDDDDDD3036303435363532DA
S31510000C8037323832393130300000000000000000B1
S31510000C9000000000000000007777772E74727573DD
S31510000CA07465646669726D776172652E6F7267001E
S31510000CB000000000000000005053415F494F545F90
S31510000CC050524F46494C455F31000000000000006D
S31510000CD00000000000000000121323340A05897872
S31510000CE0A3668C0D975553CAB576186229C6B67980
S31510000CF075C85A8D9E118F85DEC45F662152F939EB
S31510000D00D9779328B05E02FA58B416C80F3891BB3B
S31510000D102817CD8AC9537266A4B00030982F8A421C
S31510000D2091443771CFFBC0B5A5DBB5E95BC2563927
S31510000D30F111F159A4823F92D55E1CAB98AA07D83F
S31510000D40015B8312BE853124C37D0C55745DBE7262
S31510000D50FEB1DE80A706DC9B74F19BC1C1699BE4E2
S31510000D608647BEEFC69DC10FCCA10C246F2CE92D72
S31510000D70AA84744ADCA9B05CDA88F97652513E9896
S31510000D806DC631A8C82703B0C77F59BFF30BE0C69D
S31510000D904791A7D55163CA0667292914850AB7272B
S31510000DA038211B2EFC6D2C4D130D385354730A65C8
S31510000DB0BB0A6A762EC9C281852C7292A1E8BFA29F
S31510000DC04B661AA8708B4BC2A3516CC719E892D107
S31510000DD0240699D685350EF470A06A1016C1A4198A
S31510000DE0086C371E4C774827B5BCB034B30C1C3989
S31510000DF04AAAD84E4FCA9C5BF36F2E68EE828F7448
S31510000E006F63A5781478C8840802C78CFAFFBE9061
S31510000E10EB6C50A4F7A3F9BEF27871C60000080077
S31510000E2000000800FFFF0B00000400104004001033
S31510000E300400000000000000000000000000000098
S31510000E40000000000000000000000000000000008C
S31510000E50000000000000000000000000000000007C
S31510000E600000000005000000000000000000000067
S31510000E70000000000000000000000000000000005C
S31510000E80000000000000000000000000000000004C
S31510000E900000000000000000070000000000000035
S31510000EA0000000000000000000000000000000002C
S31510000EB0000000000000000000000000000000001C
S31510000EC00000000000000000000000000C00000000
S31510000ED000000000000000000000000000000000FC
S31510000EE000000000000000000000000000000000EC
S31510000EF000000000000000000000000000000000DC
S31510000F000D000000000000000000000000000000BE
S31510000F1000000000000000000000000000000000BB
S31510000F2000000000000000000000000000000000AB
S31510000F30000000000E00000000000000000000008D
S31510000F40000000000000000000000000000000008B
S31510000F50000000000000000000000000000000007B
S31510000F600000000000000000230000000000000048
S31510000F70000000000000000000000000000000005B
S31510000F80000000000000000000000000000000004B
S31510000F900000000000000000000000002400000017
S31510000FA0000000000000000000000000000000002B
S31510000FB0000000000000000000000000000000001B
S31510000FC0000000000000000000000000000000000B
S31510000FD031000000000000000000000000000000CA
S31510000FE000000000000000000000000000000000EB
S31510000FF000000000000000000000000000000000DB
S31510001000000000003D00000000000000000000008D
S3151000101000000000000000000000000000000000BA
S3151000102000000000000000000000000000000000AA
S315100010300000000000000000350000000000000065
S31510001040000000000000000000000000000000008A
S31510001050000000000000000000000000000000007A
S315100010600000000000000000000000003800000032
S31510001070000000000000000000000000000000005A
S31510001080000000000000000000000000000000004A
S31510001090000000000000000000000000000000003A
S315100010A03C000000000000000000000000000000EE
S315100010B0000000000000000000000000000000001A
S315100010C0000000000000000000000000000000000A
S315100010D0000000004372656174696E6720616E20BE
S315100010E0656D7074792049545320666C617368205D
S315100010F06C61796F75742E0D0A000000437265617C
S3151000110074696E6720616E20656D70747920505316
S3151000111020666C617368206C61796F75742E0D0A88
S315100011200000000010B5AAB00CA8182100F086F82F
S31510001130002401941422002107A800F082F802A8C6
S3151000114007A9142200F09CF8394C606A38BB6B462C
S315100011500CAA602112A800F0A7F800BB0C98F0B1F9
S315100011609DF800004FF4A051324A0591069240F4C2
S31510001170E2400D9A0C99ADF8080001AB02A800F0F8
S31510001180B9F860B90199A06A616250B9019804F181
S315100011902803412204F1300100F02CF908B1052092
S315100011A000E000202AB010BD10B5214C606A10B1C5
S315100011B000F0D8F808B1052010BD606210BD1C49BA
S315100011C0496A09B9052070470160002070473EB58D
S315100011D00446174DE86A18BB0422002101A800F046
S315100011E030F80199A86A009198B11349684600F041
S315100011F045F970B9AA6A05F13001684600F065F93B
S3151000120038B905F12C032022691C684600F083F9D1
S3151000121008B103203EBDE96A01202870491CE96225
S315100012200CB905203EBD2560E86A606000203EBD11
S31510001230E07100300906000609000002002200F0E5
S3151000124019BB10B5044610460A460146204600F062
S3151000125069FB204610BD0EE0026843680244083060
S315100012605FEAC37C44BF4B445B1E52F804CB43F881
S3151000127004CB091FF9D150F8041B0029ECD1704793
S315100012804AB1000011F8013B521E00F8013B1CBF89
S3151000129011F8013BF8E770473EB5079C069D01948F
S315100012A0009500F048FB3EBD7CB5050014461E4671
S315100012B018BF002C00D016B94AF2C53076BD2A46A2
S315100012C0012000F079FBA0B96A460421022000F043
S315100012D073FB70B932460121032000F06DFB40B953
S315100012E0256000980021A16060600020E060216107
S315100012F0606176BD2DE9F84197B0064688461546D9
S315100013001C460AA8DFF8B41300F083F90DF110009B
S315100013100CA100F084F900BF10A20AAF02A90120A7
S3151000132004970995D2E9003501900091C1E900357D
S315100013300696CDF820800294032300F0BAF900F047
S315100013406BB900000000000034000000000000002F
S315100013501400000000000000000000000000000063
S315100013600400000018B591B0044604A8DFF8501325
S3151000137000F04FF90AA1D1E90023069402A8C0E9AA
S315100013800023002004AC0190002102940091012357
S3151000139002AADFF84C0300F0E5FB12B010BD000006
S315100013A0000000003400000078B593B000F061F939
S315100013B03421FFF743FF00BF0AA1D1E9002300BF84
S315100013C00AA1089504AD0120C5E90023D1E900233F
S315100013D002AD06AEC5E900230294019002AC049654
S315100013E0009469E0000000003400000000000000D6
S315100013F014000000F0B593B000F01EF8DFF80013EB
S3151000140000F007F90AA1D1E90023089704AFC7E94C
S31510001410002306A804900296012002A902AE0190AC
S315100014200091756000F044F97168216013B0F0BD49
S31510001430000000003400000007460E4615461C4604
S3151000144006A87047C0E9002308A8029004A800F077
S3151000145043F90696022004A904AE01900091049760
S31510001460C6F80C80012302AA0021DFF8740200F0EE
S3151000147079FBF168216016B0BDE8F08178B593B0BC
S3151000148004460D4606A8DFF8101300F0C2F80995B9
S3151000149025680FF2403200F05FF80FF2403201205B
S315100014A0C1E90035D2E9003502A906AEC1E9003519
S315100014B00190009104960294012304AA0021DFF8FA
S315100014C0DC0200F04FFB14B070BDF0B595B000F023
S315100014D03EF8DFF8CC1200F09CF8276804A80FF24B
S315100014E0043100F0F8F807950FF2083208A9D2E98E
S315100014F00035049102A90120C1E90035019000913F
S3151000150006960294022304AA0021DFF8900200F046
S3151000151029FB15B0F0BD2DE9F84195B000F011F892
S31510001520DFF8801200F075F83D680FF2D02100F058
S3151000153003F80FF2D02185E702A80C95D1E9002314
S31510001540704707460E4690461C4608A87047044644
S315100015500E46154608A8704704A90A95D2E9003523
S3151000156070472DE9F84797B000F04BF8DFF83812BE
S3151000157006E02DE9F84797B000F043F8DFF82C1293
S3151000158000F047F80C960D9704B9A5B9DDF89480CC
S31510001590239E229F04A81821FFF750FE04A98F60EE
S315100015A0CE60249A099502AD08940292C5F804807B
S315100015B0B9F1110F02D36FF086001FE05FEA0A003F
S315100015C00CD0002206E0835C0DF1280A92448AF8BA
S315100015D02030521C4A45F6D3CDF8589034230AAA27
S315100015E04B600492032304B90223012002A901903F
S315100015F00091269C00F05DF86968216018B0BDE87E
S31510001600F08706460F4692469946209C219D0AA8C9
S3151000161070473422FFF734BE18B0BDE8F0811822A7
S31510001620FFF72EBE2DE9F04395B000F061F8DFF814
S315100016308011FFF7EEFF00F055F80FF2D81100F009
S315100016404BF808A8049004A88660C7601C9802A9E5
S3151000165002AE02900120019000917560022304AA47
S3151000166000211F4800F07EFA7168216015B0BDE8B0
S31510001670F08305460C4606A87047012304AA0021EC
S31510001680464800F06FFA13B0F0BD78B593B0044633
S3151000169006A84849FFF7BDFF25680FF28812FFF725
S315100016A05BFF0FF28812FFF7FABE0000019000915F
S315100016B0012304AA0021394800F054BA300E001054
S315100016C0640E00100294022304AA0021334800F08D
S315100016D049FA16B070BD0C971022FFF7D1BD000065
S315100016E000010040CDF82880CDF82C9004A8704752
S315100016F08046894616461F461D9D1E9C08A87047A3
S31510001700980E001078B593B004460D4606A82A49DF
S31510001710FFF77FFF099525680FF21812FFF71CFFD8
S315100017200FF21812FFF7BBBEF0B593B006460F4680
S3151000173015461C4606A82149FFF76BFFADF81C702D
S31510001740366802A80FF2FC010A96FFF7C5FF06A934
S31510001750029100210495059401910091022302AA99
S315100017608EE7000078B595B005460E46144608A8D3
S315100017701349FFF74EFF366804A80FF2D8010C96EE
S31510001780FFF7AAFF06950FF2DC0208A9D2E9003589
S31510001790049100F017F895E7CC0E001000010040F8
S315100017A0000F0010340F0010680F00109C0F00106F
S315100017B0D00F001004100010381000106C1000101C
S315100017C0A010001002A90120C1E900350190009176
S315100017D07047000000000000340000000000000008
S315100017E004000000000000003400000000000000AB
S315100017F000000000000000000400000000000000CF
S31510001800340000000000000004000000000000008A
S31510001810000000000000000034000000000000007E
S31510001820000000000000000034000000000000006E
S31510001830040000000000000034000000000000005A
S31510001840040000000000000034000000000000004A
S31510001850000000000000000034000000000000003E
S3151000186014000000000000000400000062F30F22C4
S3151000187062F31F4200B500BF130096469446103916
S3151000188028BFA0E80C50FAD85FEA417C28BF0CC0EC
S3151000189048BF40F8042BC90728BF20F8022B48BFC1
S315100018A000F8012B00BDF0B40246106895681318B5
S315100018B0506803EB5004C00748BF4D44A3422DD0D7
S315100018C013F8016B16F0030004BF13F8010BC01CCC
S315100018D031090F2907D113F8011B0F3103E013F853
S315100018E0017B05F8017B401EF9D10029E6D013F8DB
S315100018F0010BC6F38106032E08BF13F8016B00EB2C
S315100019000620404228440026B71E8F421EBF10F8FC
S31510001910017B05F8017B761CF6D1CFE7F0BC02F10E
S315100019200C0070474018491C1CBFB1F1010100F8AA
S31510001930012DF9D170472DE9F0438DB0149F8146E2
S315100019400D4616461C462FB1B9F1000F00D10DB940
S315100019501EB914B14AF2C5301AE005AA202100209A
S3151000196000F02AF85FEA000811D1042000F01AF9F5
S31510001970159903972022049102940196009205ABC3
S315100019802A46494600F08CFA08B143F65C284046D0
S315100019900DB0BDE8F083000000F08BBB7CB500F005
S315100019A077F840B90098854288BF05462A463146E1
S315100019B0204600F041FB76BD1346142842D8DFE8D6
S315100019C000F00B0F13171B1F23272B2F33414141F9
S315100019D04141414141373C000A460421002030E094
S315100019E00A46242101202CE00A464421022028E040
S315100019F00A464821032024E00A464C21042020E010
S31510001A000A466C2105201CE00A468C21062018E0A7
S31510001A100A469021072014E00A46B021082010E05B
S31510001A200A46D02109200CE00A46F0210A2008E0D7
S31510001A300A464FF48871132003E00A464FF4A87142
S31510001A401420ABE770E0F0B5A1B000F021F840B972
S31510001A500098A84214D32A4601A9204600F0ECFAB1
S31510001A6008B121B0F0BD01A902E01A430A54401C86
S31510001A70A84208D2335C0A5C43EA02079F42F4D0BC
S31510001A804AF2C530EDE72A46204600F00FFCE8E79B
S31510001A900C4615461E46694649E0000013461428B2
S31510001AA042D8DFE800F00B0F13171B1F23272B2F2D
S31510001AB0334141414141414141373C000A460421ED
S31510001AC0002030E00A46242101202CE00A46442159
S31510001AD0022028E00A464821032024E00A464C2129
S31510001AE0042020E00A466C2105201CE00A468C21C1
S31510001AF0062018E00A469021072014E00A46B02175
S31510001B00082010E00A46D02109200CE00A46F021F0
S31510001B100A2008E00A464FF48871132003E00A46AB
S31510001B204FF4A87114208EE74CF25A3070470128F2
S31510001B3015D9801E01280CD9801E01280FD9801EA8
S31510001B4007D0401E03280AD90C3806D0401E06D0EE
S31510001B5007E004200860002070474020FAE72020A4
S31510001B60F8E7E1E738B51C4601F50043B3F5803FC9
S31510001B703EBFB4F5807F059DB5F5807F02D36FF02B
S31510001B80800032BD240204F47F4444EA0144049BDD
S31510001B9005F0FF0545EA040101B0BDE8304000F04C
S31510001BA02FBC0000032802D0042803D005E00FF252
S31510001BB0E02070470FF2E0207047002070470021A8
S31510001BC00022002380E80E00704710B504001CBFE9
S31510001BD0216800291AD0606840B10979C91E012907
S31510001BE098BF00F022FC606800F05DFEA06838B176
S31510001BF021688979490000F061FEA06800F053FE63
S31510001C0020460C21BDE8104000F058BE10BD70B53E
S31510001C1004460E00154618BF002C1ED02660002064
S31510001C206060A0603279032A02D0042A0CD014E036
S31510001C306C21012000F034FE606060B1606800F035
S31510001C40F1FB65B9002070BD6C21012000F028FE63
S31510001C5060600028F2D1864870BD844870BDB179A5
S31510001C60022000F01DFEA0600028EBD12046FFF7F1
S31510001C70ACFFF0E700281CBF016800290BD00979DA
S31510001C80032902D0042902D005E0012100E0002139
S31510001C90406800F0D3BB0BE000281CBF0368002B84
S31510001CA006D01B79032B12BF042B406800F0FCBC36
S31510001CB06E48704700281CBF0268002A06D01279A9
S31510001CC0032A12BF042A406800F02ABDF0E76748CD
S31510001CD032BD2DE9F04188B005000E4690461CBF76
S31510001CE02968002901D0A86808B9604844E08879B5
S31510001CF0404515D22846FFF7BDFF040037D14246AE
S31510001D0031462846FFF7C8FF040030D169462846F9
S31510001D10FFF7D0FF04002AD128686E4690F8058098
S31510001D202868AF683622817938467C18FFF7FAFDA5
S31510001D3028685C2281792046FFF7F4FD002008E030
S31510001D40395C325C51403954235C315C4B4023542E
S31510001D50401C4045F4D32846FFF78CFF040006D1FB
S31510001D602868394682792846FFF796FF04462021CF
S31510001D70684600F0A3FD204608B0BDE8F0810028B3
S31510001D801CBF0368002B01D0836803B990E783E773
S31510001D9070B588B004000D461CBF2168002901D01B
S31510001DA0A06808B931481CE08A7969468618204629
S31510001DB0FFF780FFA8B92046FFF75CFF88B92068B7
S31510001DC0314682792046FFF767FF50B92068694689
S31510001DD042792046FFF760FF18B929462046FFF7DB
S31510001DE069FF08B070BD38B505001CBF286800280B
S31510001DF001D0AC6804B96AE72846FFF73BFF30B953
S31510001E002868214682792846BDE8384044E732BD25
S31510001E10FEB50E4617461D4608B91448FEBD6B465C
S31510001E2000210022002483E816000146012268469C
S31510001E30FFF7EDFE040012D13A4631466846FFF729
S31510001E4048FF04000BD1089A29466846FFF797FF0A
S31510001E50040004D109996846FFF79AFF04466846BC
S31510001E60FFF7B3FE2046FEBD0000000000AFFFFFE7
S31510001E7080AEFFFF00B14079704700B1007970471E
S31510001E80534841323234000053484132353600004F
S31510001E90801E0010031C4000881E00100420400005
S31510001EA030B505468BB00E9803AC019400902846C9
S31510001EB000F01AF8040010D10F9C2846FFF7DAFF3D
S31510001EC01299119A23460291109901920246009195
S31510001ED003A9284600F028F80446202103A800F09C
S31510001EE0EDFC20460BB030BDF8B58AB006460D465F
S31510001EF014461F46202102A8FFF7A0F945B924B9B8
S31510001F003046FFF7B7FF040001D14A480AE002AD98
S31510001F101198109901903B46009122462946304669
S31510001F20FFF776FF0BB0F0BD2DE9F04F91B0DDF85D
S31510001F306C901F460023884606930593B9F1000F4F
S31510001F4018D001928346FFF795FF04460198A042E8
S31510001F5010D37CB11A9D0FB935A700251C9EB6FB70
S31510001F60F4F0824604FB106008B10AF1010ABAF5D2
S31510001F70807F01D32F4857E002A8FFF720FE0122E9
S31510001F80594602A8FFF743FE0090002844D1214687
S31510001F9009A8FFF753F9CDF8208007971A954D46F3
S31510001FA0B146A0464FF0010B069E059F009C0CE023
S31510001FB0D3450CBFA9EB0602424609A9A819FFF79B
S31510001FC05FF9464447460BF1010BDA4523D3019AD4
S31510001FD008998DF800B002A8FFF77BFE04001AD10D
S31510001FE03A4609A902A8FFF7CAFE040013D11A9AA5
S31510001FF0079902A8FFF7C3FE04000CD10122694617
S3151000200002A8FFF7BCFE040005D109A902A8FFF734
S31510002010BFFE0400CCD0009402A8FFF7D6FD202105
S3151000202009A800F04BFC009811B0BDE8F08F000035
S315100020300000000080A0FFFF2DE9FC478046DFF876
S315100020409C7378680E46144680470FF2A831C0F389
S31510002050410011F820502846B8FBF0F100FB118022
S3151000206010B14AF2C53022E0B4FBF5FADFF87093EE
S315100020703CB17B695246314609EB08009847002867
S315100020800CD405FB0AF5641B10D07B69A844012209
S31510002090694609EB08009847002802D543F65C20EC
S315100020A005E0224669467019FFF7EAF80020BDE8F8
S315100020B0F6872DE9F84FC94EB16886B000208847DB
S315100020C043F65C2A00286DD1042205A9FFF7B4FF58
S315100020D0002874D1042269464FF4BE70FFF7ACFF96
S315100020E000286CD10598BF4C42F27C15BE4FA04219
S315100020F004BF0099B94257D07068804700F0C0F805
S31510002100042202A94FF40050FFF796FF002856D17B
S31510002110042201A92846FFF78FFF00284FD1029805
S31510002120DFF8BC92A04204BF0199B9420AD100F06F
S3151000213049F8002843D14FF400524946AB4800F005
S315100021406EF83CE000F03EF8002838D18021A8480F
S31510002150FFF774F84FF0000B0BF18000B0F5005F3D
S3151000216094BF8025CBF50055B5FBF8F2B369A049AD
S3151000217009EB0B009847002814D4AB44BBF5005F5D
S31510002180EAD300F083F8D0B90494042204A900F02D
S315100021908DF838B90397042203A94FF4BE7000F0E6
S315100021A085F860B150460AE0042269462846FFF7D2
S315100021B043FF20B90099B94218BF00F067F807B07D
S315100021C0BDE8F08F4FF40051484606E001E00818CC
S315100021D0401EB0FBF1F0484370472DE9F04105462B
S315100021E000240E46E80403D04AF2C530BDE8F0815B
S315100021F04FF400512846FFF7E9FF8046774F01E07C
S3151000220008F500587019804507D2F9694046884785
S315100022100400F5D043F65C20E8E72046E6E72DE912
S31510002220F84F05466D4E706889461446804700F093
S3151000223027F80027DFF8B8B1009500E0EF19A7429C
S315100022401AD207F1800084422CBF8025E51BB5FB0E
S31510002250F8FA009873695246594638189847002874
S3151000226007D4B3695246594607EB09009847002828
S31510002270E4D543F65C2000E00020BDE8F28F0000B4
S315100022805CA1C0F3410011F82080704710B5574C7F
S315100022904FF400512046FFF7A0FF30B921464FF406
S315100022A000524F48BDE81040B9E710BD2DE9F04F78
S315100022B08A46174685B04FF4005105467819FFF740
S315100022C086FF8146454A506800244FEA55388047B4
S315100022D048A1C0F3410011F82060DFF804B1B9F548
S315100022E0BE7F06D24FF400515846FFF776FF0028FE
S315100022F061D14FF400513846FFF769FF01460BEBE9
S315100023000500400B4003FFF768FF002853D17A19E8
S3151000231001920095CDF810A002974FEA4830039627
S31510002320DFF8CC8006460AE00098864206D301996B
S315100023308E4203D280214046FEF780FFAE194E45ED
S315100023403CD206F1800081452CBF8025A9EB0605FD
S315100023500398224BD3F814C0B5FBF0FA06F180505F
S315100023604146524600F54C20E047002821D40099FA
S31510002370A819884213D30198864210D2601800F02B
S315100023807F000299C0F180073A19914238BF0F1B9E
S3151000239004993A4640442144FEF772FF3C190F4B0C
S315100023A0D3F818C0524641460BEB0600E04700280A
S315100023B0BAD543F65C2005B0BDE8F08FB9F5BE7FFF
S315100023C007D24FF4005259460848FFF728FF002855
S315100023D0F1D105B0BDE8F04F58E700002005001414
S315100023E000A00C101281DEC0DEC0723000C00C10CE
S315100023F0ECAD0030010000000200000004000000F7
S3151000240003DF704705DF704706DF704708DF704748
S315100024100ADF70470BDF70470FDF704702DF704728
S3151000242004DF70476C21FEF709BF00281CBF6C2122
S3151000243000F044BA70476C22FEF722BF00220260F9
S31510002440426079B9874A8260874BC360874A0261C6
S31510002450874B4361874A8261874BC361874A026211
S31510002460874B0EE0874A8260874BC360874A0261BA
S31510002470874B4361874A8261874BC361874A0262F1
S31510002480874B43628166002070472DE9F84FCAB02A
S31510002490002342AA00F1080454F8235042F82350AE
S315100024A05B1C082BF8D300247E4B01EB84056F7858
S315100024B02E783F0447EA0667AE78ED7847EA062697
S315100024C045EA060E02AE46F824E017695569966984
S315100024D04FEAF72888EAB718D2F81CC086EA050929
S315100024E088EA776809EA070989EA0609C44453F8AD
S315100024F02480CC44DDF80891C444E6444FEA793A86
S31510002500CDF800E08AEAB90AD2F808E0D2F80480D9
S315100025108AEAB95A956148EA090C08EA090B0CEAE5
S315100025200E0C4CEA0B0BDDF800C0DA44D2F80CB0F6
S31510002530CDF804A0641CE344DDF800C0C2F80CB06A
S315100025405761E244CDF800A0009DC2F81CA0D661E8
S31510002550C2F810B0C2F80CE0C2F80880C2F80490B5
S315100025604295102CA1D310215DF821C06C4604EBC6
S3151000257081044FEAFC4787EA7C47A4F138056E6868
S3151000258087EA9C27D5F824C02D6867444FEAB64CD5
S315100025908CEAF61C8CEAD6063744EF19A760166942
S315100025A0546995694FEAF62E8EEAB61ED2F81CC00B
S315100025B085EA04088EEA766E08EA060888EA0508AF
S315100025C0F44453F821E0C444DDF80881F444674428
S315100025D04FEA7839009789EAB8099768D2F804E083
S315100025E089EAB859DDF800C04EEA080B0EEA080A67
S315100025F00BEA070B4BEA0A0ADDF800B0D144D2F811
S315100026000CA09461CDF80490E244D944CDF8009022
S31510002610009CC2F80CA0C2F81C90491CD5615661EA
S31510002620C2F810A0D760C2F808E0C2F8048042943D
S31510002630402999D3002100F1080500F1080353F849
S31510002640214052F821301C1945F82140491C08290F
S31510002650F3D34FF49471684600F030F900204BB074
S31510002660BDE8F08F67E6096A85AE67BB72F36E3C0C
S315100026703AF54FA57F520E518C68059BABD9831F37
S3151000268019CDE05BD89E05C107D57C3617DD7030B5
S3151000269039590EF7310BC0FF11155868A78FF96419
S315100026A0A44FFABE1C0D00102DE9F04107460E4648
S315100026B0140032D0386800F03F052018C5F14008E4
S315100026C03860A04202D27868401C7860A5B14445B3
S315100026D012D307F1280042462844FEF7D1FD07F130
S315100026E028013846FFF7D1FEC0B94644A4EB0804CA
S315100026F0002501E04036403C402C06D33146384692
S31510002700FFF7C3FE0028F5D008E034B107F1280022
S31510002710224631462844FEF7B3FD0020BDE8F0817D
S31510002720F8B504460D462178802004F1280201F000
S315100027303F015054491C04F128035818382904D86D
S31510002740C1F1380100F0C6F80CE0C1F1400100F00B
S31510002750C1F800F07DF8002879D1382104F128005D
S31510002760FEF76CFD6168206804F16006C90041EA55
S315100027705071C000F071F1700A0E32700B0C0F0A16
S31510002780010E3171010A020CB1717370B77072715A
S3151000279000F05EF800285AD1A068000E2870A168D3
S315100027A0090C6970A068000AA870A068E870E16852
S315100027B0090E2971E068000C6871E068000AA871BA
S315100027C0E068E8712169090E29722069000C6872A7
S315100027D02069000AA8722069E8726169090E2973D6
S315100027E06069000C68736069000AA8736069E87311
S315100027F0A169090E2974A069000C6874A069000A01
S31510002800A874A069E874E169090E2975E069000CDD
S315100028106875E069000AA875E069E875216A090E0D
S315100028202976206A000C6876206A000AA876216A42
S31510002830E976B06850B9606A000E2877606A000CB5
S315100028406877606A000AA877606AE8770020F2BDA8
S3151000285004F12801204618E6F0B59BB005460E4651
S3151000286017461C466C216846FEF7E8FC214668466A
S31510002870FFF7E4FD04000BD1324629466846FFF700
S3151000288013FF040004D139466846FFF749FF044692
S315100028906C21684600F012F820461BB0F0BD00000F
S315100028A0054A1368184704494A681047024A1060D7
S315100028B05160002070470000182600300A0000D131
S315100028C0704710B5024B1C680021A04710BD00BF11
S315100028D0202600300022FFF725B8000080B54FF4FF
S315100028E00072A249012000F0C9F904280FD8DFE8C8
S315100028F000F00C09060E03006FF0860002BD6FF0A3
S31510002900890002BD6FF08F0002BD002002BD6FF07E
S31510002910830002BD20B1012801D102207047052095
S315100029207047F8B5914E348842F21605AC4202D083
S315100029304FF0FF30F2BD748835191C680CB9341D80
S3151000294005E027680097BDF802603444241DAC42A8
S3151000295012D227680097BDF80070BDF80260C7F361
S3151000296085178742F1D1BDF8000000F03F000870CE
S315100029701C6016800120F2BD0020F2BD7CB5164603
S31510002980002204460D46326033462A466946002028
S31510002990FFF7C7FF012803D19DF800209442F3D119
S315100029A076BD00002DE9F042C8B007460D46144624
S315100029B0FEF7B8FB06000CD100956FF00603002257
S315100029C000210CA800F062F9010008D0FFF7A2FF61
S315100029D00646002E46D1FEF7E7FB0646C1E03A460C
S315100029E0634900F0D5F800BF9EA1D1E90023002766
S315100029F00197CDE9022301AA69460020FFF7BEFF21
S31510002A00012806D10198011DBDF80000029103901E
S31510002A1008E004A9202000F0F6F920BB04A9202222
S31510002A200291039202AA534900F0B2F86846FEF7E3
S31510002A30CEFBB0B96A46504900F0AAF820200090A3
S31510002A4003A9684600F0E9F968B9009903A801904E
S31510002A50029101AA494900F09BF8684600F006F970
S31510002A6018B106467BE0032679E0009A44490CA883
S31510002A70D31700F082F9029702AA0DF10201022083
S31510002A80FFF77CFF01281BD10298BDF80210001D2C
S31510002A90012911D0022905D004295FD1016801AAA4
S31510002AA011600BE002788DF8002042788DF8012035
S31510002AB0BDF80020019201E001780191019A02E02F
S31510002AC000F084F9024600232E490CA800F055F9AF
S31510002AD00CA8C046C046002581460020019001ABD7
S31510002AE00DF102026946E8B2FFF71BFF10F1010F64
S31510002AF0B9D0012814D17F1C012F09D1224A4FF0D9
S31510002B00FF33484600F026FA0421484600F057FAEB
S31510002B100198BDF802300921021D484600F02BFA33
S31510002B206D1CE8B20728D8DB484627B100220421DD
S31510002B3000F064FA05E00122002314490CA800F005
S31510002B401CF921460CA800F0EFF801003FF443AF42
S31510002B503FF43FAF012808BF022600D00526FEF736
S31510002B6023FB304648B0BDE8F082000054720030B6
S31510002B7000DBFEFF04DBFEFFFFDAFEFF05DBFEFFD8
S31510002B8007DBFEFF06DBFEFF02DBFEFF01DBFEFFBF
S31510002B900CA800F000B9000010B586B00168144604
S31510002BA00491416805912268202902926068039079
S31510002BB01CBF3029402914D198B16A4602A904A82D
S31510002BC0FFF7F0FE28B90098206001996160002097
S31510002BD012E004280ED8DFE800F0030A070D0400FF
S31510002BE0F5E76FF0860007E06FF0890004E06FF0FC
S31510002BF08F0001E06FF0830006B010BD38B586B0C7
S31510002C0000681468002301686FF000450293039171
S31510002C10009301955068042816D320291CBF30292B
S31510002C20402911D104AA694602A8FFF7BBFE18B9BC
S31510002C3005982060002012E004280ED8DFE800F086
S31510002C40030A070D0400F5E76FF0860007E06FF042
S31510002C50890004E06FF08F0001E06FF0830007B089
S31510002C6030BD0000000000000000000002490A68A4
S31510002C700260002070470000DCBB003010B5002455
S31510002C8000F024FA00B10124204610BD2DE9F84FBA
S31510002C90834600BF4BA0D0E900480BF198050027EA
S31510002CA029609A46B9466A60002948BF4FF0010963
S31510002CB050210BF1A000FEF7C1FA0BF1C8064FF434
S31510002CC08031F161C5F828A0C6F810906846FEF765
S31510002CD076FA08B10E2025E00A9A00980BF1DC036B
S31510002CE0C3E90048022434700BF1D001C1E9000792
S31510002CF0D2E900010A460146584600F0BDF8594689
S31510002D000BF1A00000F0FEF938B1032804D0192801
S31510002D100CBF0127032700E004270521584600F0C1
S31510002D204EF93846BDE8F28F7CB50D4604460022B2
S31510002D30052100F063F9214604F1A000002600F0F9
S31510002D4071FA00280AD016D0032803D0192803D107
S31510002D50012610E004260EE003260CE06946204604
S31510002D6000F096F90128F3D0002812BF0226DDE9FB
S31510002D700001C5E90001304676BD70B514461D4602
S31510002D8006460A46CB1700F0E5F800F00FF8BDE846
S31510002D90704000F0DFB870B500F00CF800F006F8DF
S31510002DA00221FFE7BDE8704000F0E5B822462B4649
S31510002DB030467047D2E9004506460A46CB1700F062
S31510002DC0C9B80000000000000000000080B56A4687
S31510002DD004210620FEF7F0FD98B9009870B101287D
S31510002DE009D0032804D007280BD14FF4C04002BDE8
S31510002DF04FF4405002BD4FF4005002BD4FF48050C6
S31510002E0002BD002002BD0A46202802D043F65C20EF
S31510002E10704720210520FEF7CFBD1CB504460A4693
S31510002E2021680720FEF7C8FD38B969460720FEF766
S31510002E307EFE10B900982060002016BDC0B59A42DB
S31510002E4004D20FF27C21D1E9006704E0D71A0029D9
S31510002E500CBF0026CE18C0E90067C0BDD0F88010A0
S31510002E604FF6FE738A889B1A022B01DA03207047ED
S31510002E70521C8A8000207047D0B50E46044617466D
S31510002E809821FEF7DBF931463A46204600F07AFAE9
S31510002E9004F114000421C4F89400A176D0BD0000FA
S31510002EA0FEB50D4603460DF1090C0C2D08BF802505
S31510002EB002D00D2D02D1A0251F2628E0DDE908013C
S31510002EC0002905D8182803D23AB100267EA412E0AC
S31510002ED0072D04BF00291F28F7D1064616E00CF867
S31510002EE0010D000A40EA0160090A7F1C7745F6DBEE
S31510002EF0A2EB0E02761C002908BF002801D1002A79
S31510002F0003DD14F806E00027F0E717366D010A997D
S31510002F10184675190CF8015D0DF109020B46A2EB66
S31510002F200C02614600F03AFAF7BD1FB58468CDE988
S31510002F30002300220294FFF7B3FF1FBD10B504460D
S31510002F40207C30B900212046FFF7EFFF00F034F85F
S31510002F50207410BD10B50446207C58B9002B43BF11
S31510002F60D243DB43012100212046FFF7DEFF00F0AC
S31510002F7023F8207410BDF8B50646307CC8B90F4644
S31510002F8014461D46092F09D00B2F08BF02212A46C9
S31510002F9000233046FFF7C9FF0B2F05D0B368214633
S31510002FA02A46304600F0FAF906F11400FFF756FFEC
S31510002FB03074F1BD0621B8E704F114004EE738B5B8
S31510002FC004460D46FFF7F8FF2074B0B9A06810F15B
S31510002FD0650F02D30720207431BDD4F89420002148
S31510002FE004F18C039A4208BF022105D00832918061
S31510002FF01060C4F894209571217431BD7FB50546D3
S31510003000287C144648BB00F02DF805D083798B42F6
S3151000301005D00F2028747FBD042129747FBD066852
S31510003020022902D1AA68921B03E08288052B08BFE9
S3151000303052080023CDE90023029600222846FFF706
S315100030402FFF44B100F00AF8DDE90001334600F025
S315100030500FF800F018F800F00FF87FBD2946684603
S3151000306000F0CAB9D5F8940005F1140290427047E1
S315100030700A4601466846E1E6D5F89420A2F1080012
S31510003080C5F894007047DDE90001C4E900017047F6
S315100030903EB50C46817B09B101220274057C2900DC
S315100030A00CD1D0F8941000F11402914218BF0A25E1
S315100030B004D10146FFF7D3FFFFF7E5FF28463EBDD3
S315100030C000000000000000000101020440DF70470C
S315100030D042DF004708B901207047002070471346A9
S315100030E00A460221FFF747BF0521FFF768BF0022F6
S315100030F00521FFF783BF80B511B1FFF7EBFF00B1D4
S31510003100012002BDF8B5A8B00646306A0D4600F09B
S31510003110B9F908B9012079E096F83800810704D486
S31510003120122200232846FFF745FF04212846FFF701
S3151000313046FF376A3146182202A8FFF79DFE02A8FD
S31510003140FFF7D2FF0122002302A8FFF703FF3A463A
S31510003150FB1702A8FFF7FEFE02A8FFF7C8FF694695
S3151000316002A8FFF795FF00280EBFDDE900010FF258
S31510003170FC12D2E90001C6E9060108B9022444E0AE
S3151000318000F046F806F13C02D2E90001CDE9000153
S3151000319096F83820D30705D5FFF7ADFF10B168466E
S315100031A000F0EAF92846FFF79FFFDDE90001FFF777
S315100031B0A2FF30B9042200F030F8DDE9000100F07A
S315100031C027F8746CB4F5803F0AD0B06C08B122248D
S315100031D01BE000F021F8224600232846FFF7AEFE3A
S315100031E0B46C54B100F018F8204600F0F5F9034617
S315100031F0224603212846FFF7BEFE2846FFF777FF33
S31510003200022128460024FFF7DAFE204629B0F0BD39
S315100032100A460146284662E7032200232846FFF79E
S3151000322099BE000055A32DE9F0470C4680460221B1
S3151000323050A0D0E900592046D3E90067BEB00BAACA
S31510003240FFF7DCFEA07B1DAD0DAE08B10121217488
S31510003250207C012808BF192701D008B1182781E062
S315100032602068D8F820C0A0B90021079108AF0297AE
S3151000327008F1280082B0D0E90023CDE90023D0E977
S3151000328002236046CDE902230CBC00F0FDF9074687
S315100032905CE009A80490CDE90267DDE90B23CDE9CE
S315100032A00023D8E9060100230A460146604600F0CD
S315100032B0FDF80746002855D198F83800D8F8206050
S315100032C0C10719D4DDE9092307A80690CDE90459E9
S315100032D0CDE9022308F1280182B0D1E90023304656
S315100032E0CDE90023D1E90223CDE902230CBC00F07D
S315100032F0A5F90746B0BB29E0DDF82480DDF828A043
S3151000330016F1070F04D14026B1450DD2062729E044
S3151000331016F1230F08BF6026F6D016F1240F08BF4A
S315100033208426F1D001271DE000250AE0701B5246C5
S31510003330824588BF02461DAB41465819FDF7A0FFCE
S315100033405544B542F2D31DA907910896DDE9070148
S315100033500A4601462046FFF7C2FE002204212046F7
S31510003360FFF74CFE38463EB0BDE8F087000000007F
S3151000337000000000000000008400000000000000B3
S315100033804000000013460A4610B540F60F310024DF
S31510003390818184608473C0E9002310BDF8B50646A8
S315100033A0B07B0C4615461F4618BBB08940F60F3148
S315100033B0884207D1B2687068904222BF801AA8422C
S315100033C0BA4202D20120B073F1BD3068C119D21BC6
S315100033D001EB050303D048B1184600F0DBF930685D
S315100033E020B12A462146384400F0D4F9B0682C188A
S315100033F0B460F1BD0000000070B58A7B32B100BF29
S315100034000CA1D1E90023C0E9002370BD8C8940F6D8
S315100034100F35AC4208D001228A7300BF07A1D1E94B
S315100034200045C0E9004570BD0E688968C0E90061B5
S3151000343070BD000000000000000000000000000049
S3151000344000000000E0B506460F46384600F0C4F806
S3151000345003463A46304601B00321BDE8C040FFF7A7
S315100034608ABD13460A460221FFF785BD13460A4652
S315100034700B21FFF780BD0421FFF7A1BD0022042117
S31510003480FFF7BCBD10F1070F02D16FF00F007047A8
S3151000349010F1230F02D16FF02A00704710F1240F9C
S315100034A002D16FF02B007047002070472DE9FC47C2
S315100034B01F4691463AA3D3E90062B6B00546884640
S315100034C0DDE9404A04A910A8FFF7D6FC10A8FFF7BB
S315100034D0D2FF00BF2FA110A8FFF7B4FF41464A46FE
S315100034E010A8FFF7BEFF00BF2FA0D0E9002310A839
S315100034F0FFB200F03EF83FB92DA0D0E9002310A886
S31510003500012600F036F805E02146524610A800269E
S31510003510FFF7ACFF10A8FFF7B1FF02A910A8FFF73D
S31510003520B7FD08B1152021E02846FFF7ABFF01468D
S31510003530684600F0E3F8010018D10398861B39BFDE
S3151000354000210020029930460246449DDDE942677B
S31510003550684600F0EFF821465246684600F0EAF851
S315100035602B4631463A46684600F0EFF838B0BDE8CB
S31510003570F08711461A4674E730B50549202200BF78
S315100035800DA34A600B60D1E90045C0E9004530BD86
S31510003590D0BB00305369676E617475726531000077
S315100035A000000000300000000000000000000000D5
S315100035B00000000000000000EF954B4BD9BDF670DF
S315100035C0D0336082F5EF152AF8F35B6A6C00EFA62C
S315100035D0A9A71F49517E18C600F1010310F8011B57
S315100035E011B110F8011BFBE7C01A704710F1070F55
S315100035F001D15E48704710F1230F01D15C48704726
S3151000360010F1240F01D15B48704700207047A0B11C
S3151000361010F1950F01D10D20704710F1860F01D1D1
S315100036200120704710F18D0F01D11020704710F155
S31510003630970F01D112207047172070470CB4BCB5F4
S3151000364084B0FFF7D3FF410A4902B1F1062F18BF24
S31510003650012014D103A90291DDE910450146DDE9E7
S315100036600E23DDE90C0701950094FDF7DBFFFFF74C
S31510003670CEFF010003D112990C60039B4B6006B07C
S31510003680B0BC5DF80CFB00000CB410B58AB000BFDE
S315100036903CA2116819B352F8043B8342F9D11421A4
S315100036A06846FDF7CBFD05A869461422FDF7E8FD2F
S315100036B0DDE90E0305A9FDF777FEBDF81640FFF705
S315100036C0A6FF38B9E10814F0070F18BF491C109867
S315100036D04900016000200AB010BC5DF80CFB012007
S315100036E0F9E750B110F1860F01D10320704710F1A0
S315100036F08A0F01D105207047042070471CB5044677
S3151000370011F1100F08BF1C490AD011F12B0F08BF79
S315100037101A4905D011F12C0F0CBF19494FF6FF713C
S315100037200020009020602046FDF7A8FE6060FFF79D
S31510003730D8FF16BD10B50446606828B9080003D036
S315100037402046FDF7C2FE606010BDD0B50646706813
S315100037500C461F4628B93B1D3046FDF7DCFE70604F
S315100037603C607068BDE8D040BBE700000906000663
S315100037700A0600060B060006090000020A000002EF
S315100037800B000002F9FFFFFFDDFFFFFFDCFFFFFF6D
S315100037900000000062B181423ABF53189842FDF70B
S315100037A071BD801813F8011D521E00F8011DF9D1C4
S315100037B070470000EFF3108072B6704780F31088E0
S315100037C07047F8B50C0018BF002805D0016800290D
S315100037D01CBF4568002D02D16FF08000F2BD4E6906
S315100037E0FFF7E8FF0746686CC4F890006C64286B16
S315100037F030432863E96A314209D0286B014005F14C
S31510003800340000F0F2F8E86A20EA0606EE6238465E
S31510003810FFF7D4FF4648016804F1180000F0E0F8FD
S315100038200020F2BD80B5183000F0DFF8002002BD90
S31510003830F8B5836A0268194381620021416300F179
S31510003840380300B1D960956A11693A4C4D19ED08E3
S31510003850ED000561916A44620825C91DC908C900B1
S31510003860416100218161C161016202F108010C69A7
S31510003870283202EB84020C680832A60504D44D697E
S31510003880AD000F35ED08ED00846900262D19046989
S315100038908561641B04614D68666025600F68BD050F
S315100038A00FD4002509E018276F4302F11006F659C8
S315100038B004F1080747F825606D1C4E69B542F2D32E
S315100038C06660C4600968002200F1100519705A700C
S315100038D05A805D6018466FF001021749BDE8F8403E
S315100038E000F042B838B5124D284600F06BF829683A
S315100038F00446486810384168006800F083F908B13A
S3151000390000F092F9204632BDF8B505460E46FFF78F
S3151000391051FF2C6B0746344006D1EE62044801680D
S3151000392005F1340000F05CF887F310882046F2BDEC
S3151000393040BE0030EDEEEEEE7529011010B50446CE
S31510003940216BE06A014004F1340000F04EF80021CA
S31510003950E16210BD1A48406800E0806800281CBF6C
S3151000396041780129F9D1704770B5044613461448B9
S3151000397002686AB125781678AE4209D200E002468E
S31510003980906810B10678AE42F9D3A060946001E059
S31510003990A26004606068002200F060F920460121F0
S315100039A0BDE8704041704178054A012905D151683A
S315100039B021B1037809788B4200D3106850607047A4
S315100039C044BE003038B50446FFF7C4FF054600F084
S315100039D03DF904B125606868BDE8324000F066B96B
S315100039E00A46026002211046DCE738B50446206814
S315100039F00D4660B14278022A09D10121FFF7D2FFA4
S31510003A0022682946506800F016F90020206031BD62
S31510003A1038B586B000F054F900F0CDF900F002FA8E
S31510003A2043F6DA3400284FD100F024FB00284BD19E
S31510003A307CA0016805A8644D059100F0ECFB634974
S31510003A40019128680121624A039102920021009097
S31510003A5003228DF812108DF810108DF8112069467A
S31510003A6005A800F099FB00282ED12968594A019221
S31510003A70594B00F02CF8002826D12968574A019294
S31510003A80574B00F024F800281ED12968554A019298
S31510003A90554B00F02EF8002816D12968534A01928A
S31510003AA0534B00F026F878B92968524A0192524BC6
S31510003AB000F01FF840B9286801220121401C286037
S31510003AC005A800F053FB00B1204607B030BD012217
S31510003AD0491C0293039200910323002229608DF85A
S31510003AE011308DF812208DF81020694605A800F0C7
S31510003AF053BB0222491C0293039200910123002218
S31510003B0029608DF811308DF812208DF81030694625
S31510003B1005A800F041BB2DE9F84F86B0894600286C
S31510003B2018BFB9F1000F45D0816900F12802C769A5
S31510003B3002EB81028568182101FB07272D0A05F083
S31510003B40010508374FF0000B1F4EDFF8B0A04FF0FD
S31510003B500C08059001E00BF1010B0598016A8B45E5
S31510003B602BD208FB0BF039180A7A1107F3D53C58FB
S31510003B7054451CBF224884421CD12946204600F0D9
S31510003B80AAFA002DE7D120680022019061683068FA
S31510003B90029101210090401C8DF811108DF8101023
S31510003BA0306003928DF812206946301D00F0F4FA49
S31510003BB00028D0D043F6DA3002E0C9F800500020D1
S31510003BC007B0BDE8F08F000090260030000400100A
S31510003BD040040010A0050010CD540110205701100C
S31510003BE0A064011020080030C015003000600120CC
S31510003BF0FFBF01200008003004080030782600308E
S31510003C006026003011F00F0018BF0120EFF3148169
S31510003C10490880F0010040EA410080F31488002032
S31510003C207047000090ED00E0FEE7000085461B4A55
S31510003C301A4B0CB40847026922B111604FF0EE31ED
S31510003C4041617047006801627047000014481549C9
S31510003C500160BFF34F8FBFF36F8F70472DE9F041AF
S31510003C6004460D46216816460F4A41F8082D081DD0
S31510003C700260A1F14007984640220021384600F024
S31510003C8008FB3E62BD63C7F834804FF08070F8635E
S31510003C906FF00201E1602760BDE8F081A5EDF5FE49
S31510003CA004ED00E000000010A5EDF5FE0168426885
S31510003CB0203182F30B8881F30988C06870470000B1
S31510003CC080B500F00BFB00F039FB2148016821F0AC
S31510003CD0700141F020018A0892000260016001BD66
S31510003CE01C49086840F4700008601B48026842F4DA
S31510003CF0700202600B6843F00F030B60026842F01B
S31510003D000F0202604B6840F6034003434B601348B2
S31510003D1001684A05FCD501688A045DBF4CF2205241
S31510003D2042604DF628110E49416002681105FCD516
S31510003D304FF6FF728260016821F0800141F0200188
S31510003D40016001684A05FCD50648074908607047B6
S31510003D50E4C0014088ED00E088ED02E000A00150CB
S31510003D6020C528D90000001008ED00E0DFF8B003E8
S31510003D7000210170D0F8092042F47022C0F8092001
S31510003D8000207047DFF89C130A68DFF89C0392B294
S31510003D9002430A600020704710B500204FF0FF3133
S31510003DA0DFF88823C3B2401CC4B242F82310102C8B
S31510003DB0F8D3002010BD80B5DFF874030168002227
S31510003DC041F001010160DFF86C134B098260DFF8E6
S31510003DD06823114449095B014901C36041F001019F
S31510003DE0016101218160D54AC260D5490161D54979
S31510003DF0022249098260D44A520949015201C1601E
S31510003E0042F003020261032181604FF08042C260DA
S31510003E10CE490161684600F054FB6946CC4800F073
S31510003E2051FB01BD2DE9F84FDFF824A388B05046A9
S31510003E30C046C04602A9504600F00EFB01A800215C
S31510003E40016004A8016005A8016003A801600025AF
S31510003E5007E00126F3B200F008F9761C082EF9D314
S31510003E606D1C9DF80A008542F3D3002507E0012654
S31510003E70F3B200F0F5F8761C082EF9D36D1C9DF8F8
S31510003E800B008542F3D304980599002540F4EE40C3
S31510003E900490039841F4E041059140F077000390B7
S31510003EA0019840F4EE4040F07700019012E00023B4
S31510003EB0EAB205A900F0D6F80123EAB204A900F087
S31510003EC0D1F80323EAB203A900F0CCF8022300F0DC
S31510003ED0C7F86D1C9DF80B008542E8D3002512E04B
S31510003EE00023EAB205A900F0C2F80123EAB204A938
S31510003EF000F0BDF80323EAB203A900F0B8F80223D4
S31510003F0000F0B3F86D1C9DF80A008542E8D3002135
S31510003F100091002600E0761C9DF80A0001258642D5
S31510003F2039D20098022E66F30710009005D1009939
S31510003F300A2060F30301009103E0009865F3030083
S31510003F40009000270EE00098694668F31F6000F0A5
S31510003F5083F808F1010806988045F4D36D1C042DEA
S31510003F6009D37F1C9DF809008742D4D200980025FA
S31510003F7067F30F200090EBB2F2B206A9504600F09C
S31510003F8081FA06980028ECD000984FF0000865F3E7
S31510003F9017400090DFE70021664E674800913718FA
S31510003FA041F00B017F1C0091F60B06E00098694664
S31510003FB066F31F6000F050F8761CB6EBD73FF5D3CA
S31510003FC0002100911A2060F30F010091DFF86C9127
S31510003FD0604E614FDFF8848109F160444FF6FF703F
S31510003FE0844209D20098640B4FF0080B65F3174012
S31510003FF0DFF86C91009023E008EB090449F6FF7096
S31510004000844206D2640B4FF0050BDFF8589102205C
S315100040100AE007EB090441F6FF70844214D2240B20
S315100040204FF0020BB1460320009960F3174100913F
S3151000403006E00098694664F31F6000F00DF8641CF2
S315100040405C45F6D3B145C7D3BFF34F8FBFF36F8F20
S31510004050002009B0BDE8F08F0090504600F04EBA2F
S31510004060EAB201A9504600F033BAEAB201A95046A5
S3151000407000F03ABA3EB53C4A354C009200F027F8AB
S3151000408000991520202560F31F61009100F01FF89C
S315100040900098694665F31F60009000F019F86D1CD2
S315100040A02B2DF5D3206840F48040206001A800F045
S315100040B0FDF9019801A9C008C0000190204600F042
S315100040C0FAF9206840F00100206000203EBD6946E4
S315100040D0204600F013BA8268002A00D0704780B5D7
S315100040E000230093C268012962F307130093026943
S315100040F062F31743009340691A4660F31F620092F9
S3151000410003D1D008C000009004E00120114660F3EE
S315100041100201009169460E4800F0F0F901BD000059
S315100041201BED00E00CED00E00800FA0580E300E06E
S31510004130D0ED00E000000800FFFF03000060012042
S31510004140E1BF01200004001040040010E1FFFF4F02
S315100041500060025000C001200060FEDF0000FFDF9B
S315100041600000012000A00120200000140068094B67
S31510004170036301B104210AB141F0020141604168B3
S3151000418041F001014160BFF34F8FBFF36F8F0020E5
S315100041907047000004AAFF0010B50A79006812F0F3
S315100041A01F0F01D0012010BD4268002343600C7818
S315100041B084608C7C4B68E40004F018045B0944EAC4
S315100041C043134C7C640004F0060423430C7C04F077
S315100041D001042343C3608B68C9685B1E5B094900F1
S315100041E001F00E0141EA431343F0010303614260FB
S315100041F0BFF34F8FBFF36F8F002010BD00680023F1
S3151000420001F0FF014268436081600021C1600361D3
S3151000421042600020704738B505462A681368C3F314
S31510004220072404E0641E21462846FFF7E7FF002C0A
S31510004230F8D1002032BD30B503461C4604E011F813
S31510004240010B521E04F8010BC2B104F0010001F07B
S3151000425001052843F3D1022A0ED3A00701D48D07F6
S315100042600AD531F8020B921E24F8020BF3E751F827
S31510004270045B121F44F8045B042AF8D21046421E4F
S3151000428000281CBF11F8010B04F8010BF6D11846D3
S3151000429030BD30B5CDB22B0443EA0563044643EA7C
S315100042A005232B4302E004F8011B521E5AB114F0E9
S315100042B0030FF8D1032A84BF44F8043B121FF9D820
S315100042C001E004F8011B13465A1E002BF9D130BD2C
S315100042D0128800EB8100A0F88020704780B5124844
S315100042E0016811F0030F12D1016889088900016075
S315100042F0026842F0010202600168002903D50168D4
S3151000430041F080410160BFF36F8FBFF34F8F00BF45
S3151000431008A202210548FFF7DBFF00BF06A10888A7
S31510004320034A108001BD000010C101400040045036
S315100043308C400450000300000003000038B53048DC
S315100043400168304C304D21F4000101602F4802689D
S3151000435022F40002026020683EA220F400002060D1
S315100043602B48016821F4000101600121284600F064
S31510004370F9F8206820F44030206028684008400092
S315100043802860E868C106FCD4E86940F02000E861BE
S31510004390E86810F0050FFBD02068C001FCD54FF47B
S315100043A000411C4A116000BF21A000681A4C6060D1
S315100043B0C0F302622168C1F302619142FAD100BFD3
S315100043C021A000F09DF900BF1AA001686160216864
S315100043D00268C1F30261C2F302629142F7D100BFD3
S315100043E015A000F057F90D480D49086015A000F00A
S315100043F06AF90C480C49086000220C4B1A6031BD52
S3151000440000E3014000E4014000F0015000E20140E9
S3151000441000E1014070AE003010E001400048E801B4
S315100044206CAE003000D8B8055C26003020E0015094
S3151000443003000002030000030048E8010100000029
S315100044400000000000000000010000000200000053
S315100044500000000001040400D0F8F020120A0A70CF
S31510004460D0F8F03003F00F034B70D0F8F020120C98
S3151000447002F007028A70D0F8F000000E00F00F006C
S31510004480C870704700EBC20010B55A0800EB8204E2
S3151000449004F5A07002681B0103F01003DA40C2F3A2
S315100044A009020A60006801224A6010BD00E000009F
S315100044B0002101607047096841F00041C0F80018FA
S315100044C07047F5E7096841F00101C0F8C01170475F
S315100044D010B50C684FF431714A43104400EB830257
S315100044E044F22003D45010BD00EB0230096800EBF3
S315100044F0830202F58153196070470000F0B50A680F
S315100045005FF0000514A6C2F3031400EB0430930DFC
S3151000451003F01C0302F00F0100F5825000249940AD
S31510004520C2F3074C03E056F827706D1C3C19EFB226
S315100045306745F8DB550005F4FF3528182018D20E0C
S3151000454000EB820002680F2404FA03F322EA030345
S315100045500B430360F0BD000040010000280000007E
S315100045602800000010B50B0007D1826816490A40D2
S315100045708260C1684A07FCD410BD032907D181683F
S3151000458041F003018160C1684A07FCD510BD8468FB
S315100045907AB1137843B1937863F30B24537863F3AA
S315100045A00F3444F0800401E024F08004D27862F3E2
S315100045B0155401F00301214341F080718160C168F7
S315100045C0CA07FCD510BD0000FCFFFFFEDFF8D811AE
S315100045D0082821D8DFE800F00509050B070B12188B
S315100045E01900032002E0012000E0002016E0DFF8A9
S315100045F0BC010268D3010FD508687047DFF8B00117
S315100046000168CA0108D579E0B8E0DFF8A8010268A8
S31510004610D30101D5486870470020704738B5044665
S31510004620664805686048290E01F00701491E0329EE
S315100046301AD8DFE801F002080E115C4A1168CB01A6
S3151000464010D5006811E05A480168CA010AD55A48BF
S315100046500BE000F093F808E056490A68D30148BF0A
S31510004660406802D4002000E05548C5F30341491CB8
S31510004670B0FBF1F014B1012C06D032BD05F00F05D8
S315100046806D1CB0FBF5F032BDC5F30311491CB0FB30
S31510004690F1F032BD10B5044600F00BF840B9606871
S315100046A0424940F0010008600A68A06800F072F8FC
S315100046B010BD3E4801688A0100D51CE0090201D5EB
S315100046C00220704754E010B5044600F009F830B9DE
S315100046D02178374801600268D101FCD5002010BD51
S315100046E0334801688A0100D505E0090201D5022088
S315100046F0704700213EE040F6350070472E4870475F
S3151000470010B5044600F02BF840BB20792D4900F077
S3151000471003008860A068B8B182882B4B03EA024375
S31510004720827802F003021343CB60B0F90030B3F580
S31510004730807F04BFC2798A61B0F9000008600A68F8
S31510004740530101D5012010BD0A682068024342F0CA
S3151000475001020A600A68D001FCD5002010BD194874
S3151000476001688A0100D5C6E7090201D50220704703
S315100047704FF0806101600020704700001148016809
S31510004780CA0105D5D0F8080012A100F003001DE0FB
S315100047900020704722F4403202430A600A68D001B2
S315100047A0FCD50020704700006CAE003000E10140DF
S315100047B000E2014000E40140808D5B0010E0014002
S315100047C000366E0100E301400000FF0751F820009B
S315100047D070470000006CDC020090D00300D8B805CA
S315100047E000B0710B8900FEF769B801210160002243
S315100047F042608260704710B504000CD0A06828B1E2
S315100048006168FFF7EFFFA068FEF74DF80120206002
S3151000481000216160A16010BD70B500F04AF808D2A1
S315100048206A68B24215D204213046FEF739F8040000
S3151000483000D144E0A96851B16A689200FCF720FDE6
S315100048406968A868FFF7CEFFA868FEF72CF86E60B7
S31510004850AC60002070BD70B500F02BF818D26968F6
S315100048608E4204D331462846BDE87040D4E7491E2F
S3151000487004D0AA6852F821000028F8D0491C8E42AC
S3151000488038BF0E4604213046FEF70AF8040000D160
S3151000489015E0A96849B1B200FCF7F2FC6968A8688E
S315100048A0FFF7A0FFA868FDF7FEFF6E60AC60002062
S315100048B070BD05460E4642F21170864270476FF083
S315100048C00F0070BD38B505460C0002D1FFF793FFF7
S315100048D008E06868A04207D1A868A100FCF7AEFC02
S315100048E001202860002032BD2846FFF784FF2146AC
S315100048F02846BDE834408FE7F8B506460F46002532
S31510004900BE4209D07C684CB9716829B1012030606B
S31510004910B0688900FCF792FC0020F2BD641E04D03A
S31510004920B96851F824000028F8D03868641C306043
S315100049307168A14204D200F011F805000CD106E00E
S31510004940B068091B890000EB8400FDF7C3FFB96846
S31510004950B068A200FCF794FC2846F2BD214630460A
S315100049605AE770B50E4605460121FFF755FF0400BC
S315100049700FD16968A8688900FCF760FC300048BF51
S315100049804042A968002E08604CBF4FF0FF3001204E
S315100049902860204670BD4268B1EB421F01D300204B
S315100049A0704780684A0901F01F0150F82200C8407C
S315100049B000F001007047014630B50020002204E0E7
S315100049C05B1C401C202B04D3521C4B689A4207D206
S315100049D000238C6854F82250DD40EC07F0D530BD2A
S315100049E0002030BD01464868A0B1401E8A6800E02C
S315100049F0401E52F8201008B10029F9D04FF000429D
S31510004A000023114203D152085B1C202BF9D340011D
S31510004A102030C01A704780B5FFF7E4FFC01DC008EC
S31510004A2002BD81B0009000206A460421034612F8A8
S31510004A30010B491E40EA0320F8D101B0704770B54A
S31510004A40044681B104EB81010D1F0AE02068FFF7CF
S31510004A50E8FF06462868FFF7E4FF44F8040B45F81C
S31510004A600469A542F2D270BD2DE9F84306461446F4
S31510004A700F4614F0030018BF012000EB92083046D1
S31510004A804146FFF71FFFC4EB880905000AD14CB158
S31510004A90B068224639464844FCF7F2FBB0684146F6
S31510004AA0FFF7CDFF2846BDE8F283F8B50446084661
S31510004AB061688900914208D20D4683184E421E4401
S31510004AC0511AFDF707FF00201EE015460646284638
S31510004AD000E0401C8842F6D2A268830852F8237080
S31510004AE0C20002F01802D7403B06F2D010E0A168CF
S31510004AF0820851F82230C10001F018012A1ACB4061
S31510004B00324402F8013C401CA842F0D30020F2BD0A
S31510004B106FF00700F2BD2DE9F041064688464FEAD0
S31510004B20581408F01F05FFF75DFF804470680027D2
S31510004B304001404508D218F01F0018BF012000EBB5
S31510004B405811FFF70CFF48BB00209CB1716807E0B5
S31510004B50B2680B1B121F52F8233042F82130491E3F
S31510004B608C42F5D300291FBFB268131F43F82100EA
S31510004B70491EF7D195B1C5F1200C0CE0B16851F87A
S31510004B80242022FA0CF3AA4041F82420174341F8B6
S31510004B9024701F46641C71688C42EFD3BDE8F08107
S31510004BA0F8B5024654680023480901F01F018442F3
S31510004BB002D3A04205D121B110460021BDE8F44030
S31510004BC0CFE6A0B1002406E09568061955F82670C0
S31510004BD045F82470641C55682D1AAC42F4D35068FD
S31510004BE084423EBF906840F82430641CF7D3A1B1CC
S31510004BF05068002810E09468C1F1200604EB800488
S31510004C0054F8045C05FA06F6CD4044F8045C2B43D0
S31510004C1044F8043C3346401EEDD10020F2BD70B579
S31510004C2000F045F815D0824210D3904203D20FE01F
S31510004C3091420DD3401E60B199680A1F52F8201098
S31510004C40A268151F55F820208A42F1D2012070BDA6
S31510004C5046E0002070BD70B500F029F825D08242DC
S31510004C6001D2186870BD2568904202D26D4228465E
S31510004C7070BD1968002903DD002D09D5012070BD0E
S31510004C80002D05DD002903D52AE0AA420AD3401ECD
S31510004C9058B19A68151F55F8202056F8205095429D
S31510004CA0F3D200E04942084670BD002070BD0346AD
S31510004CB09A680C465868151F00E0401E18B155F842
S31510004CC020100029F9D0A56862682E1F00E0521E38
S31510004CD01AB156F822100029F9D052EA000170478D
S31510004CE04FF0FF3070BDF8B5002904D54942009148
S31510004CF04FF0FF3101E00091012101910123029350
S31510004D00CDF80CD001A9FFF7A6FF05B000BDF8B588
S31510004D1006461546AE4204BF0D4631468E4203D0B6
S31510004D20FFF7EAFD002836D1012030606C6800E0FC
S31510004D30641E1CB1A96800F098F8F9D0FFF70EFEB2
S31510004D4048BBA968B268002500270EE01368D1F8A1
S31510004D5000C0EB18AB42AD41ED0F6344634538BF5D
S31510004D606D1C7F1C091D42F8043BA742EED395B17A
S31510004D7071687C1C8F4205D3FFF7F0FD58B9B168F6
S31510004D8001EB8702116827466918A942AD41ED0F5C
S31510004D9042F8041BEBE7F2BDF0B50024002511E044
S31510004DA052F8256053F825C0A642BF41341BFF0FA9
S31510004DB026466645A6EB0C06A44141F8256007EB8E
S31510004DC0D4746D1C8542EBD32046F0BD2DE9F0411D
S31510004DD00F46154606466C68A96800E0641E14B1B5
S31510004DE000F043F8FAD07968A14230D3FFF7B7FD47
S31510004DF05FEA000836D17A68944209D2B868B36877
S31510004E00121B00EB8401920003EB8400FCF738FAC6
S31510004E1071687868884206D2B268091A890002EB6E
S31510004E208000FDF757FDAB68BA68B1682046FFF7FA
S31510004E30B3FF40B914E0B16851F8240050B9401ED0
S31510004E4041F82400641C70688442F4D302D16FF0D8
S31510004E50090807E0B06850F82410491E40F82410DD
S31510004E60012030604046BDE8F08101EB840252F823
S31510004E70040C00287047F8B500F032F80FD531460B
S31510004E802846FFF7CCFE002802D400F030F809E0DF
S31510004E902A46314600F02DF830B97F4203E020460D
S31510004EA0FFF735FF00B92760F2BDF8B500F018F826
S31510004EB000280FDD31462846FFF7B1FE002802D440
S31510004EC000F015F809E02A46314600F012F830B91C
S31510004ED07F4203E02046FFF71AFF00B92760F2BDB4
S31510004EE004460D4616462F6830687843704732469A
S31510004EF0294620466AE71FB500F004F8FFF7D5FFEC
S31510004F0004B010BD002A04D5524200924FF0FF3271
S31510004F1001E000920122019201240294CDF80CD0F6
S31510004F2001AA70472DE9F0430E461746994600210F
S31510004F300EE0BA63F16B403600F03BF938BF491CFE
S31510004F40FB6B9A189A4238BF491CFA6340371038DF
S31510004F501028C0F0B180D6F80080A9FB08238A1863
S31510004F608A4238BF5B1C39688A188A4238BF5B1C74
S31510004F7000F02CF938BF6D1C79680C198C4238BFBB
S31510004F806D1C00F01CF938BF5B1CB9688A188A4280
S31510004F9038BF5B1C00F0F9F838BF6D1CF9680C19A6
S31510004FA08C4238BF6D1C00F0F7F838BF5B1C3969AE
S31510004FB08A188A4238BF5B1C3A61716900F0E7F8BB
S31510004FC038BF6D1C79690C198C4238BF6D1C7C6119
S31510004FD0B16900F0E3F838BF5B1CB9698A188A42D8
S31510004FE038BF5B1CBA61F16900F0D1F838BF6D1C8F
S31510004FF0F9690C198C4238BF6D1CFC61316A00F0DE
S31510005000CDF838BF5B1C396A8A188A4238BF5B1CD8
S315100050103A62716A00F0BBF838BF6D1C796A0C19D8
S315100050208C4238BF6D1C7C62B16A00F0B7F838BF8D
S315100050305B1CB96A8A188A4238BF5B1CBA62F16A6D
S3151000504000F0A5F838BF6D1CF96A0C198C4238BFF0
S315100050506D1CFC62316B00F0A1F838BF5B1C396B1C
S315100050608A188A4238BF5B1C3A63716B00F08FF85E
S3151000507038BF6D1C796B0C198C4238BF6D1C7C6364
S31510005080B16B00F090F838BF08F10108B96B8A18B7
S315100050908A4201D208F101084BE7BA61F16920365C
S315100050A000F087F838BF491CFB699A189A4238BF36
S315100050B0491CFA6120370838082848D33268A9FBFA
S315100050C002238A188A4238BF5B1C39688A188A42BA
S315100050D038BF5B1C00F07AF838BF6D1C79680C1964
S315100050E08C4238BF6D1C00F06AF838BF5B1CB9687B
S315100050F08A188A4238BF5B1C00F047F838BF6D1C0F
S31510005100F9680C198C4238BF6D1C00F045F838BF91
S315100051105B1C39698A188A4238BF5B1C3A6171690F
S3151000512000F035F838BF6D1C79690C198C4238BF00
S315100051306D1C7C61B16900F036F838BF08F10108C2
S31510005140B9698A188A42A8D208F10108A5E7C0B140
S3151000515056F8042BA9FB02238A188A4238BF5B1C17
S3151000516039688A188A422CBF1946591C47F8042BED
S31510005170401EECE73868081888428941C90F47F87D
S31510005180040B0029F6D1BDE8F083BA60F168A9FBDB
S3151000519001451C199C427047FC603169A9FB01232B
S315100051A0AA18AA427047A9FB0123AA18AA42984630
S315100051B07047A9FB012342444245194670477C605B
S315100051C0B168A9FB0123AA18AA4270473A60716810
S315100051D0A9FB01451C199C4270472DE9F04786B082
S315100051E080460F46924600F0BDFA68460026FFF745
S315100051F0FCFAB84505D100F058F8814600284CD184
S3151000520003AFD04507D151466846FFF775FB814677
S31510005210002842D1EA467D6806E0B96801EB8502AE
S3151000522052F8040C18B96D1E002DF6D10126DAF8C5
S31510005230044007E0DAF8081001EB840252F8040C77
S3151000524018B9641E002CF5D1012661194046FFF7E6
S31510005250E3FA814608BB00214046FFF782FB8146F0
S31510005260D8B9002C0FE0DAF8080000EB8401D8F862
S31510005270080051F8043C00EB84010A1FB96828465F
S31510005280FFF750FE641EEED1002E11BF01213968C2
S31510005290DAF800004143C8F8001000F066FA00F092
S315100052A05EFA484606B0BDE8F087394603A8FFF710
S315100052B023BB2DE9F0410D46074616466C68A968D2
S315100052C000E0641EC4B1FFF7D0FDFAD0A6B1611C90
S315100052D03846FFF7A1FA5FEA00080CD1294638468E
S315100052E0FFF70AFB5FEA000805D1BA68A968731EC2
S315100052F02046FFF717FEB5E538460021BDE8F04118
S31510005300FFF72FBB2DE9F04F05460C469B4695B08F
S31510005310164600215846FFF7E6FC10B96FF00B0051
S3151000532064E10C966846FFF760FA00F01BFA09A8CC
S31510005330FFF75BFA06A8FFF758FA01210C980F91B0
S31510005340032212AB109211930E950D945946FFF746
S3151000535066FC002811D50E9828B10021FFF701FB35
S315100053608046002868D10D9828B10C99FFF7C4FA29
S315100053708046002860D1002038E10C996846FFF776
S31510005380BBFA8046002857D15946FFF78FFF804653
S31510005390002851D10C98012103910091416809A868
S315100053A0891CFFF739FA8046002845D1002109A843
S315100053B0FFF7D7FA804600283ED10C98416806A818
S315100053C0891CFFF729FA8046002835D103A8FFF774
S315100053D009FB00F01F001F2811D2C0F11F008246E2
S315100053E051466846FFF797FB8046002824D1514660
S315100053F003A8FFF790FB804600281DD101E04FF06F
S31510005400000A019C049D641E03A86D1E661B710193
S31510005410FFF781FB804600280ED103A96846FFF7E7
S315100054201AFC002809D40B9803AA00F0E2F800F041
S3151000543068FB0028F1D08046C9E0710103A8FFF788
S31510005440AFFB80460028F7D14FF0010939E0081F5D
S3151000545050F827007DE00B98011F51F8262003A96C
S3151000546006A8FFF726FF80460028E5D1771E7901AA
S3151000547006A8FFF750FB80460028DDD106AA00F0EB
S3151000548040FB80460028D7D100216846FFF72BFC49
S31510005490002815D503A906A8FFF72EFA804600287E
S315100054A0CAD1790106A8FFF736FB80460028C3D17A
S315100054B006AA00F022FB80460028BDD100F09FF816
S315100054C0641EA5425CD20598029F50F82520661BE3
S315100054D057F82410914228BF4FF0FF300FD262B117
S315100054E007EB8400A0F108035868002300F00EFBB8
S315100054F0494504D301D8404501D34FF0FF300B99ED
S315100055000A1F42F82600012C92BF002007EB8400E8
S3151000551050F8080C1199002C08600FBF002007EBFB
S315100055208400A0F108025068486057F824002F46FE
S3151000553088600B98001F00F05CF800F060F80021FE
S3151000554006A8FFF70EFA002811D10599002F7FF44F
S315100055507EAF089A106051F8270050600B98011F13
S3151000556051F8262006A906A8FFF7A3FE00287FF407
S3151000557062AF0FA906A8FFF76EFB0028DDDC6AE70D
S315100055800E9858B109A9FFF7B7F98046F8B90C99E2
S31510005590DBF800000A680E9942430A600D98B0B114
S315100055A051466846FFF7FCFA804680B90C980168A8
S315100055B00D9800916946FFF79FF9804638B90D9806
S315100055C00021FFF790FB10B90D99C1F8009000F07B
S315100055D0CCF800F0C4F809A8FFF70DF906A8FFF7F4
S315100055E00AF90C2112A8FDF769F9404615B0BDE875
S315100055F0F08F50F82610491C40F8261070470B986B
S31510005600001F50F82610491E40F82610704770B536
S3151000561005460C46164600213046FFF764FB002867
S3151000562000D524E03346224629460020FFF76AFEBD
S3151000563004000CD100212846FFF755FB002808D599
S31510005640324629462846FFF716FC0400F2D02046BB
S3151000565070BD31462846FFF7FEFA0028F7D43246C9
S3151000566029462846FFF721FC0400F2D0EFE76FF039
S31510005670090070BDF8B586B006460F46154600F00F
S3151000568071F86846FFF7B1F8FFF70FFE04005FD117
S3151000569029466846FFF730F9040059D103A8FFF7E9
S315100056A08AF904466846FFF786F9050009D10021F4
S315100056B06846FFF770F920B939463046FFF71CF9EE
S315100056C045E0A54288BF254601210091039100219E
S315100056D003A8FFF708FB80B303A8FFF76CF9014690
S315100056E003A8FFF75DFA040032D16846FFF763F9A5
S315100056F001466846FFF754FA040029D1694603A803
S31510005700FFF7A9FA00280AD46A4603A903A8FFF7E7
S315100057105DFB040004BF012103A809D018E003AA09
S3151000572069466846FFF752FB040011D1012168460D
S31510005730FFF736FA0400CAD00AE029466846FFF792
S31510005740EAF9040004D169463046FFF7D5F8044655
S3151000575000F005F800F009F8204607B0F0BD03A8E0
S31510005760FFF749B803A8FFF740B86846FFF743B8F4
S315100057702DE9F04705460C469046994614F003006D
S3151000578018BF012000EB91066868B700A7EB040A62
S31510005790B04238BF6FF0030016D3A8685146FBF726
S315100057A04DFD6968A868891B8900C019FDF792F834
S315100057B0A968224648465144C047040003D1A86848
S315100057C03146FFF73CF92046BDE8F0872DE9F04F4A
